Block header - 180B, or 360 hex
01000000b926d1870d6f88760a8b10db0d4439e5cd74f3827fd4b682744300000000000035cade3c4cd99e7547d1dffe8474855dd363dff69b395428810466c985d067c8000000000000000000000000000000000000000000000000000000000000000001000000000000000000000000000000ffff011b00c2eb0b00000000020000007e01000080d8b856bac0f231c84e3a6b6ad536d301000000000000000000000000000000000000000000000000000000

// (????)
01

// The serialized encoding of the version includes the real transaction
// version in the lower 16 bits and the transaction serialization type
// in the upper 16 bits.
TX version, followed by variable # inputs
01000000 // tx version == 3 or 64? (big/little endian)
01 // < 0xfd, 1 B int, == 3 or 1? (big/little endian)

Serialized inputs - 32B tx hash, output index, tree
0000000000000000000000000000000000000000000000000000000000000000
ffffffff
00
ffffffff // sequence (comes from TxIn struct, non-witness)


03 // # of outputs, also variable (1,3,5,9)


fa1a9812   // Value
0000       // Version
00         // variable int size of PkScript, example is 0, so no PkScript
00000017   // (????)

// Following fits isAnyKindOfScriptHash, isScriptHash
a9 // OP_HASH160 
14 // OP_DATA_20 <- 20B in the asm hash
f5916158e3e2c4551c1796708db8367207ed13bb // asm hash
87 // OP_EQUAL


00000000   // Value
0000       // Version
00         // Variable int size of PkScript, example is 0, so no PkScript
00000026   // (????)

// Following fits isNullData
6a // OP_RETURN
24 // OP_DATA_36 <- 36B in the OP_RETURN value
02000000000000000000000000000000000000000000000000000000ffa310d9a6a9588e // OP_RETURN value


dea1906f   // Value
0000       // Version
00         // Variable int size of PkScript, example is 0, so no PkScript
00000019   // (????)

// Following fits the isPubkeyHash requirements
76 // OP_DUP
a9 // OP_HASH160
14 // OP_DATA_20 <- 20B in the asm hash
8ffe7a49ecf0f4858e7a52155302177398d22969 // asm
88 // OP_EQUALVERIFY
ac // OP_CHECKSIG

// Now, what the fuck is this
0000 // LockTime
0000 // Expiry
0000000001d8bc28820000000000000000 (????)

ffffffff // blockindex (mostly confident)
08 // ?

// A coinbase is a special transaction created by miners that has no inputs
// A coin base must only have one transaction input.
// The previous output of a coin base must have a max value index and a zero hash.
// ^ I assume that this refers to the 32B tx hash (0s) & output index in the early part of the tx
00002f646372642f // coinbase

// End of a block? or end of a tx?
00

--
Tx:
===

01000000010000000000000000000000000000000000000000000000000000000000000000ffffffff00ffffffff03fa1a981200000000000017a914f5916158e3e2c4551c1796708db8367207ed13bb8700000000000000000000266a2402000000000000000000000000000000000000000000000000000000ffa310d9a6a9588edea1906f0000000000001976a9148ffe7a49ecf0f4858e7a52155302177398d2296988ac000000000000000001d8bc28820000000000000000ffffffff0800002f646372642f
